:100000000C9461000C947E000C947E000C947E0095
:100010000C947E000C947E000C947E000C942101C4
:100020000C947E000C947E000C947E000C947E0058
:100030000C947E000C947E000C947E000C947E0048
:100040000C94D7000C947E000C947E000C947E00DF
:100050000C947E000C947E000C947E000C947E0028
:100060000C947E000C947E00000000002500280007
:100070002B0000000000240027002A0000000000E0
:1000800023002600290004040404040404040202DA
:100090000202020203030303030301020408102007
:1000A0004080010204081020010204081020000012
:1000B0000008000201000003040700000000000027
:1000C000000011241FBECFEFD8E0DEBFCDBF11E08E
:1000D000A0E0B1E0EAE4F6E002C005900D92AA309B
:1000E000B107D9F721E0AAE0B1E001C01D92A9341F
:1000F000B207E1F70E9446010C9423030C94000020
:100100003FB7F89480910F0190911001A0911101D7
:10011000B091120126B5A89B05C02F3F19F001969A
:10012000A11DB11D3FBFBA2FA92F982F8827BC0151
:10013000CD01620F711D811D911D42E0660F771F79
:10014000881F991F4A95D1F708958F929F92AF9279
:10015000BF92CF92DF92EF92FF924B015C010E941F
:1001600080006B017C010E9480006C197D098E0962
:100170009F09683E734081059105A8F321E0821A2A
:100180009108A108B10888EEC80E83E0D81EE11CD2
:10019000F11C81149104A104B10429F7FF90EF90A0
:1001A000DF90CF90BF90AF909F908F9008951F9257
:1001B0000F920FB60F9211242F933F938F939F931B
:1001C000AF93BF9380910B0190910C01A0910D0111
:1001D000B0910E0130910A0123E0230F2D3758F51D
:1001E0000196A11DB11D20930A0180930B019093EC
:1001F0000C01A0930D01B0930E0180910F0190911D
:100200001001A0911101B09112010196A11DB11D23
:1002100080930F0190931001A0931101B0931201EC
:10022000BF91AF919F918F913F912F910F900FBEF2
:100230000F901F90189526E8230F0296A11DB11D5F
:10024000D2CF1F920F920FB60F9211248F939F93CC
:10025000AF93BF938091130190911401A091150168
:10026000B09116010196A11DB11D809313019093C9
:100270001401A0931501B0931601BF91AF919F9106
:100280008F910F900FBE0F901F901895CF93DF9313
:10029000CDB7DEB7789484B5826084BD84B58160C3
:1002A00084BD85B5826085BD85B5816085BD809141
:1002B0006E00816080936E001092810080918100B9
:1002C00082608093810080918100816080938100B1
:1002D000809180008160809380008091B100846073
:1002E0008093B1008091B00081608093B0008091D4
:1002F0007A00846080937A0080917A008260809393
:100300007A0080917A00816080937A0080917A00EF
:10031000806880937A001092C10087B117B88AB1C3
:100320001AB844988AB180698AB98BB18BB9109296
:10033000B0001092B1001092B20088EC8093B3002C
:100340008091B00082608093B00082E08093B10021
:10035000809170008D7F80937000F89483E080938B
:10036000C50080E48093C40088E18093C10086E0EA
:100370008093C200789464EF71E080E090E00E9486
:10038000A5006CE9E62E60E0F62EF701249178E8EE
:10039000C72E70E0D72EF60184918823C9F090E033
:1003A000880F991FFC01EE58FF4FA591B491FC01F5
:1003B000E859FF4F459154913FB7F8949C91822F93
:1003C000809598239C93DA019C9189238C933FBF5D
:1003D00099E0492E91E0592E20E1322E30EB632E28
:1003E00030E0732E40E0A42E40E0B42E409249014C
:1003F0002DB73EB7EDB7FEB7F2970FB6F894FEBF34
:100400000FBEEDBF3196BF014DB75EB74D5C5F4F7C
:1004100087E191E0DB011D92BD01DC011D92CD0160
:1004200064177507B9F7809170008260809370003F
:10043000A0E08091C00087FD0DC040911301509154
:10044000140160911501709116014035534C6105FE
:10045000710578F3409113015091140160911501D9
:10046000709116014035534C6105710508F47FC049
:10047000809170008D7F8093700010921301109214
:100480001401109215011092160182E3A7E1B1E068
:1004900001900D928A95E1F70FB6F8943EBF0FBE1A
:1004A0002DBF44E050E060E071E087E191E00E9400
:1004B0001503892B09F0ABC08BB183258BB98091D3
:1004C000C1008F7E8093C10060ED77E080E090E016
:1004D0000E94A50065E071E087E191E00E940E03B3
:1004E00007E111E04801D4010D900020E9F7CD01AA
:1004F000885191409801275131402817390708F059
:1005000075C0F3018491F7019491F601249122239F
:10051000C1F3882359F0833009F451C008F044C076
:10052000813009F452C0823009F453C0E22FF0E068
:10053000EE0FFF1FE458FF4FA591B4918C919823C3
:1005400021E030E011F430E020E0232BD1F2D8019B
:100550008D918D019091C00095FFFCCF8093C600D6
:100560006AE070E080E090E00E94A500BCCF90912E
:10057000C6009F3708F05DCF10921301109214014E
:10058000109215011092160181E08A0FAE0FBF2F55
:10059000B11D9C93DF01A80FB11D11979C919A305A
:1005A00009F466CFA82F45CF8730B1F08830D1F05D
:1005B000843009F0BBCF809180008F7D03C0809193
:1005C00080008F7780938000B1CF84B58F7784BD12
:1005D000ADCF84B58F7DFBCF8091B0008F778093B6
:1005E000B000A4CF8091B0008F7DF9CF6AEF70E0AA
:1005F00080E090E00E94A5008091C100806180931E
:10060000C1006AEF70E080E090E00E94A500A114B4
:10061000B10409F4EBCE0E940000E8CEFB01DC013E
:1006200001900D920020E1F70895FB01DC0141509B
:10063000504030F08D910190801919F40020B9F7E5
:0A064000881B990B0895F894FFCF72
:0A064A0049444E3F0041434B0A00B3
:00000001FF
