:100000000C9452000C946F000C946F000C946F00D1
:100010000C946F000C946F000C946F000C94120100
:100020000C946F000C946F000C946F000C946F0094
:100030000C946F000C946F000C946F000C946F0084
:100040000C94C8000C946F000C946F000C946F001B
:100050000C946F000C946F000C946F000C946F0064
:100060000C946F000C946F00000000002500280025
:100070002B0000000000240027002A0004040404D0
:100080000404040402020202020203030303030342
:10009000010204081020408001020408102001021F
:1000A0000408102011241FBECFEFD8E0DEBFCDBF63
:1000B00011E0A0E0B1E0E2EFF4E002C005900D92A3
:1000C000A630B107D9F721E0A6E0B1E001C01D924A
:1000D000A534B207E1F70E9437010C9477020C9423
:1000E00000003FB7F89480910B0190910C01A09112
:1000F0000D01B0910E0126B5A89B05C02F3F19F048
:100100000196A11DB11D3FBFBA2FA92F982F882797
:10011000BC01CD01620F711D811D911D42E0660F72
:10012000771F881F991F4A95D1F708958F929F9244
:10013000AF92BF92CF92DF92EF92FF924B015C01A0
:100140000E9471006B017C010E9471006C197D0995
:100150008E099F09683E734081059105A8F321E04F
:10016000821A9108A108B10888EEC80E83E0D81E53
:10017000E11CF11C81149104A104B10429F7FF9042
:10018000EF90DF90CF90BF90AF909F908F900895A9
:100190001F920F920FB60F9211242F933F938F93BC
:1001A0009F93AF93BF938091070190910801A09115
:1001B0000901B0910A013091060123E0230F2D3788
:1001C00058F50196A11DB11D2093060180930701EA
:1001D00090930801A0930901B0930A0180910B014B
:1001E00090910C01A0910D01B0910E010196A11DFD
:1001F000B11D80930B0190930C01A0930D01B0935E
:100200000E01BF91AF919F918F913F912F910F90D0
:100210000FBE0F901F90189526E8230F0296A11D80
:10022000B11DD2CF1F920F920FB60F9211248F9350
:100230009F93AF93BF9380910F0190911001A09174
:100240001101B09112010196A11DB11D80930F0102
:1002500090931001A0931101B0931201BF91AF913F
:100260009F918F910F900FBE0F901F901895CF9375
:10027000DF93CDB7DEB7789484B5826084BD84B552
:10028000816084BD85B5826085BD85B5816085BD91
:1002900080916E00816080936E0010928100809149
:1002A00081008260809381008091810081608093D1
:1002B0008100809180008160809380008091B100F6
:1002C00084608093B1008091B00081608093B00021
:1002D00080917A00846080937A0080917A008260B5
:1002E00080937A0080917A00816080937A00809177
:1002F0007A00806880937A001092C10087B117B8A5
:100300008AB11AB844988AB180698AB98BB18BB91D
:100310001092B0001092B1001092B20088EC80935D
:10032000B3008091B00082608093B00082E080933F
:10033000B100809170008D7F80937000F89483E00D
:100340008093C50080E48093C40088E18093C1005D
:1003500086E08093C2007894EDE9F0E02491E9E82A
:10036000F0E08491882399F090E0880F991FFC01B8
:10037000EE58FF4FA591B491FC01E859FF4F8591CC
:1003800094918FB7F894EC91E22BEC938FBF68EEC9
:1003900073E080E090E00E94960004E011E080E9C4
:1003A000D82E90E0E92E90E0F92E009345018DB70C
:1003B0009EB72DB73EB7225331090FB6F8943EBF12
:1003C0000FBE2DBFEDB7FEB73196BF0123E131E07F
:1003D0004DB75EB74D5C5F4FDB011D92BD01D9018A
:1003E0001D929D0146175707B9F7209170002260B2
:1003F00020937000A0E02091C00027FD0DC0409127
:100400000F01509110016091110170911201403162
:1004100057426105710578F340910F015091100129
:1004200060911101709112014031574261057105CF
:1004300098F1209170002D7F2093700010920F0191
:1004400010921001109211011092120122E3A3E107
:10045000B1E001900D922A95E1F70FB6F8949EBF96
:100460000FBE8DBF44E050E060E071E083E191E0B9
:100470000E946902892B49F48BB18D258BB964EFF9
:1004800071E080E090E00E949600E114F10409F42C
:100490008CCF0E94000089CF3091C6003F3708F012
:1004A000AACF10920F011092100110921101109218
:1004B000120121E02A0FAE0FBF2FB11D3C93DF01C7
:1004C000A20FB11D11973C913A3009F4B2CFA22F7F
:1004D00092CFFB01DC014150504030F08D910190F2
:1004E000801919F40020B9F7881B990B0895F89426
:0204F000FFCF3C
:0604F20049444E3F0000EA
:00000001FF
