:100000000C9434000C9451000C9451000C94510049
:100010000C9451000C9451000C9451000C94F40079
:100020000C9451000C9451000C9451000C9451000C
:100030000C9451000C9451000C9451000C945100FC
:100040000C94AA000C9451000C9451000C94510093
:100050000C9451000C9451000C9451000C945100DC
:100060000C9451000C94510011241FBECFEFD8E026
:10007000DEBFCDBF11E0A0E0B1E0ECE3FAE002C0EA
:1000800005900D92A031B107D9F721E0A0E1B1E0D0
:1000900001C01D92AD31B207E1F70E9419010C9425
:1000A0001C050C9400003FB7F894809119019091C1
:1000B0001A01A0911B01B0911C0126B5A89B05C097
:1000C0002F3F19F00196A11DB11D3FBFBA2FA92FD7
:1000D000982F8827BC01CD01620F711D811D911DD4
:1000E00042E0660F771F881F991F4A95D1F7089540
:1000F0008F929F92AF92BF92CF92DF92EF92FF9238
:100100004B015C010E9453006B017C010E94530073
:100110006C197D098E099F09683E73408105910520
:10012000A8F321E0821A9108A108B10888EEC80E50
:1001300083E0D81EE11CF11C81149104A104B104D8
:1001400029F7FF90EF90DF90CF90BF90AF909F90F6
:100150008F9008951F920F920FB60F9211242F9334
:100160003F938F939F93AF93BF938091150190918D
:100170001601A0911701B09118013091140123E0EC
:10018000230F2D3758F50196A11DB11D20931401A1
:100190008093150190931601A0931701B093180155
:1001A0008091190190911A01A0911B01B0911C013D
:1001B0000196A11DB11D8093190190931A01A0937E
:1001C0001B01B0931C01BF91AF919F918F913F9103
:1001D0002F910F900FBE0F901F90189526E8230FB8
:1001E0000296A11DB11DD2CF1F920F920FB60F9292
:1001F00011248F939F93AF93BF938091100190919F
:100200001101A0911201B09113010196A11DB11D20
:100210008093100190931101A0931201B0931301E8
:10022000BF91AF919F918F910F900FBE0F901F9034
:100230001895CF93DF93CDB7DEB761970FB6F894DB
:10024000DEBF0FBECDBF789484B5826084BD84B517
:10025000816084BD85B5826085BD85B5816085BDC1
:1002600080916E00816080936E0010928100809179
:100270008100826080938100809181008160809301
:100280008100809180008160809380008091B10026
:1002900084608093B1008091B00081608093B00051
:1002A00080917A00846080937A0080917A008260E5
:1002B00080937A0080917A00816080937A008091A7
:1002C0007A00806880937A001092C10085E0E0E0B7
:1002D000F1E08E010F5F1F4FD80101900D928A95BA
:1002E000E1F796E0FE013696DF01892F1D928A958F
:1002F000E9F787B117B88AB11AB844988AB180690A
:100300008AB98BB18BB91092B0001092B1001092E3
:10031000B20088EC8093B3008091B000826080933B
:10032000B00082E08093B100809170008D7F809357
:100330007000F89483E08093C50080E48093C4004B
:1003400088E18093C1009093C200789468EE73E0D6
:1003500080E090E00E947800F80101900020E9F729
:100360003197E01BF10B680130E020E0F12CE12C2B
:10037000AA24AA94B12CC601801B910B8E179F074B
:100380008CF4D6018D916D018E0D9F2D911DB501BF
:100390000E9425027C01820F931FB5010E94250255
:1003A0009C01E9CF322F22272E293F293F932F93FB
:1003B0008BE091E09F938F937E01BCE0EB0EF11CEC
:1003C000FF92EF920E944402B701C8010E943902D5
:1003D0000F900F900F900F900F900F9020E1D22E62
:1003E00085E0E82EF12C8BB18D258BB964EF71E09F
:1003F00080E090E00E947800E1E0EE1AF10899F7C1
:100400007801F80101900020E9F73197E01BF10B2A
:10041000C701801B910B8E179F0780F4D7018D9128
:100420007D019091C00095FFFCCF8093C6006AE0EB
:1004300070E080E090E00E947800E3CF60E47FE12C
:1004400080E090E00E947800CBCFAA1BBB1B51E15B
:1004500007C0AA1FBB1FA617B70710F0A61BB70B34
:10046000881F991F5A95A9F780959095BC01CD01D9
:100470000895FB01DC010D900020E9F71197019030
:100480000D920020E1F70895AEE0B0E0EAE4F2E07A
:100490000C94F3040D891E8986E08C831A830983EA
:1004A0008FEF9FE79E838D83AE01475E5F4F6F891D
:1004B000788DCE0101960E9467022F813885020F48
:1004C000131FF80110822E96E4E00C940F05ABE0A8
:1004D000B0E0EDE6F2E00C94E5047C013B018A011A
:1004E000FC0117821682838181FFC8C1CE0101966B
:1004F0005C01F7019381F30193FD859193FF819155
:100500003F01882309F453C1853239F493FD859165
:1005100093FF81913F01853229F4B70190E00E9459
:100520005704E7CF912C212C312CFFE1F31538F043
:100530008B3211F190F4803209F1833229F137FCCA
:100540003CC020ED280F2A3050F536FE20C08AE04E
:10055000989E200D1124922E06C08D3291F080338A
:1005600071F7689430F8F30193FD859193FF8191C1
:100570003F018111DACF21C0689431F8689432F8D4
:10058000F2CF689433F8EFCF689434F8ECCFEAE018
:100590002E9E200D1124222E689435F8E4CF8E3241
:1005A00029F436FC04C1689436F8DDCF8C3619F492
:1005B000689437F8D8CF8836B1F2982F9F7D95543C
:1005C0009330E0F08336A1F18337C1F1833509F030
:1005D00063C02801F2E04F0E511CF801C080D180A9
:1005E000692D70E036FC02C06FEF7FEFC6010E94FC
:1005F00041044C01689437F882010AC00C5F1F4F18
:10060000FFE3F98388248394912C6501E89437F8FB
:1006100033FE2DC0522C8114910471F5552009F43C
:1006200068CFB70180E290E00E9457045A94F6CF59
:10063000F801808189830E5F1F4FE4CF2801F2E02B
:100640004F0E511CF801C080D180692D70E036FC3E
:1006500002C06FEF7FEFC6010E944C044C01820183
:10066000D5CFB70180E290E00E9457042A94281465
:10067000190409F0B0F7CECFF60137FC859137FEAB
:1006800081916F01B70190E00E94570451105A9474
:10069000F1E08F1A9108BFCF843619F0893609F03E
:1006A00077C0F80137FE6BC06081718182819381D0
:1006B0000C5F1F4FF32DFF763F2E97FF09C09095DB
:1006C0008095709561957F4F8F4F9F4F689437F855
:1006D0002AE030E0A5010E948704C82ECA188C2C9D
:1006E000432C36FE0CC0E89440F8C91440F434FEA4
:1006F00005C032FC03C0F32DFE7E4F2E892C44FE34
:1007000095C0FE01EC0DF11D8081803309F087C09A
:10071000242D297E422E842D8870582E43FC95C0AE
:1007200040FE8FC09C2C821418F42C0C922C98182C
:1007300044FE91C0B70180E390E00E94570442FE5E
:1007400009C088E790E041FE02C088E590E0B7016B
:100750000E945704C91408F48AC0CA94D12C9FEF90
:10076000C91AD90ACA0CDB1CF60182916F01B701C4
:1007700090E00E945704AC14BD04B1F74FCF6081E4
:100780007181072E000C880B990B0E5F1F4F92CFC3
:10079000D32CE894D4F82AE030E0853739F1232DC2
:1007A000297FD22E8F3601F148F48835A9F0F70160
:1007B000868197812B96E2E10C940105803749F000
:1007C0008837A9F7D4FE02C06894D2F820E130E05F
:1007D0000DC06894D4F8F6CF34FE03C0822F866033
:1007E000D82E20E132E002C028E030E0F801D7FE48
:1007F0000FC060817181828193810C5F1F4FA501C1
:100800000E948704C82ECA183D2CE89437F867CF99
:100810006081718190E080E00E5F1F4FF0CF42FC5D
:1008200002C0839478CF8394839475CF842D867887
:1008300009F471CFF6CFB70180E290E00E9457042F
:1008400083948214C0F3512C73CF522C5818821405
:1008500008F46ECFF8CF842D867809F47BCF8BE235
:1008600041FE80E247FC8DE2B70190E071CFB70115
:1008700080E390E00E9457049A946CCF8FEF9FEF33
:1008800099CFFC010590615070400110D8F7809518
:1008900090958E0F9F1F0895FC016150704001904C
:1008A0000110D8F7809590958E0F9F1F08950F9394
:1008B0001F93CF93DF93182F092FEB018B8181FDBD
:1008C00009C01FEF0FEF812F902FDF91CF911F9164
:1008D0000F91089582FF14C02E813F818C819D81EC
:1008E000281739073CF4E881F981CF0101969983F3
:1008F000888310838E819F8101969F838E83E3CFAF
:10090000E885F985812F0995892BA1F3DACFFA01C2
:10091000AA27283051F1203181F1E8946F936E7F3E
:100920006E5F7F4F8F4F9F4FAF4FB1E03ED0B4E02F
:100930003CD0670F781F891F9A1FA11D680F791F70
:100940008A1F911DA11D6A0F711D811D911DA11D81
:1009500020D009F468943F912AE0269F1124301991
:10096000305D3193DEF6CF010895462F4770405D2C
:100970004193B3E00FD0C9F7F6CF462F4F70405DDB
:100980004A3318F0495D31FD4052419302D0A9F736
:10099000EACFB4E0A6959795879577956795BA9530
:1009A000C9F700976105710508959B01AC010A2EF6
:1009B00006945795479537952795BA95C9F7620FCD
:1009C000731F841F951FA01D08952F923F924F9271
:1009D0005F926F927F928F929F92AF92BF92CF92CF
:1009E000DF92EF92FF920F931F93CF93DF93CDB7D8
:1009F000DEB7CA1BDB0B0FB6F894DEBF0FBECDBF50
:100A000009942A88398848885F846E847D848C8420
:100A10009B84AA84B984C884DF80EE80FD800C8129
:100A20001B81AA81B981CE0FD11D0FB6F894DEBF0C
:0C0A30000FBECDBFED010895F894FFCF7C
:100A3C0049444E3F000000000000002025750A00CC
:00000001FF
